:100000000C9435000C945D000C945D000C945D0024
:100010000C945D000C945D000C945D000C945D00EC
:100020000C945D000C945D000C945D000C945D00DC
:100030000C945D000C945D000C945D000C945D00CC
:100040000C949D030C945D000C940D040C94E70338
:100050000C945D000C945D000C945D000C945D00AC
:100060000C945D000C945D007F0511241FBECFEF42
:10007000D8E0DEBFCDBF11E0A0E0B1E0E2EAF7E1F9
:1000800002C005900D92A43DB107D9F722E0A4ED7E
:10009000B1E001C01D92A438B207E1F710E0C5E35A
:1000A000D0E004C02197FE010E94D108C433D107DB
:1000B000C9F70E943F040C94CF0B0C9400003FB78B
:1000C000F8948091D9019091DA01A091DB01B0916F
:1000D000DC0126B5A89B05C02F3F19F00196A11D94
:1000E000B11D3FBFBA2FA92F982F8827BC01CD0182
:1000F000620F711D811D911D42E0660F771F881FE1
:10010000991F4A95D1F708958F929F92AF92BF920F
:10011000CF92DF92EF92FF920E945F004B015C0151
:1001200088EEC82E83E0D82EE12CF12C0E945F00CF
:10013000681979098A099B09683E73408105910510
:10014000A8F321E0C21AD108E108F10888EE880E70
:1001500083E0981EA11CB11CC114D104E104F10478
:1001600029F7FF90EF90DF90CF90BF90AF909F90D6
:100170008F900895AF92BF92CF92DF92EF92FF924D
:100180000F931F93CF93DF936C017B018B01040FBF
:10019000151FEB015E01AE18BF08C017D10759F05B
:1001A0006991D601ED91FC910190F081E02DC6019D
:1001B0000995892B79F7C501DF91CF911F910F9197
:1001C000FF90EF90DF90CF90BF90AF900895FC012B
:1001D000538D448D252F30E0842F90E0821B930BAC
:1001E000541710F0CF96089501970895FC01918D52
:1001F000828D981761F0A28DAE0FBF2FB11D5D9655
:100200008C91928D9F5F9F73928F90E008958FEFF6
:100210009FEF0895FC01918D828D981731F0828DAA
:10022000E80FF11D858D90E008958FEF9FEF089501
:10023000FC01918D228D892F90E0805C9F4F821B65
:1002400091098F73992708958DED91E00E9418010F
:1002500021E0892B09F420E0822F089580E090E0CE
:10026000892B29F00E94240181110C94000008952B
:10027000FC01A48DA80FB92FB11DA35ABF4F2C911B
:10028000848D90E001968F739927848FA689B78912
:100290002C93A089B1898C91837080648C93938D09
:1002A000848D981306C00288F389E02D80818F7DAC
:1002B00080830895EF92FF920F931F93CF93DF9364
:1002C000EC0181E0888F9B8D8C8D98131AC0E88992
:1002D000F989808185FF15C09FB7F894EE89FF8961
:1002E0006083E889F98980818370806480839FBFFF
:1002F00081E090E0DF91CF911F910F91FF90EF90FF
:100300000895F62E0B8D10E00F5F1F4F0F7311270E
:10031000E02E8C8D8E110CC00FB607FCFACFE88949
:10032000F989808185FFF5CFCE010E943801F1CF98
:10033000EB8DEC0FFD2FF11DE35AFF4FF0829FB7BD
:10034000F8940B8FEA89FB8980818062CFCFCF93AD
:10035000DF93EC01888D8823B9F0AA89BB89E889ED
:10036000F9898C9185FD03C0808186FD0DC00FB693
:1003700007FCF7CF8C9185FFF2CF808185FFEDCF11
:10038000CE010E943801E9CFDF91CF910895FC01A1
:1003900001900020E9F73197AF01481B590BBC01D0
:1003A0008DED91E00C94BA008F929F92AF92BF9224
:1003B0000F931F93CF93DF93CDB7DEB7A1970FB6FF
:1003C000F894DEBF0FBECDBF19A2423008F44AE058
:1003D0008E010F5D1F4F842E912CB12CA12CA501F5
:1003E00094010E94AF08E62FB901CA01EA30F4F483
:1003F000E05DD801EE938D01232B242B252B79F77B
:1004000090E080E0109719F0CD010E94C701A196FD
:100410000FB6F894DEBF0FBECDBFDF91CF911F9115
:100420000F91BF90AF909F908F900895E95CE1CFBE
:10043000CF93DF93EC01FB01208131813983288345
:10044000828193819B838A83289FA001299F500DDD
:10045000389F500D1124648175818C819D810E948B
:10046000C60BCE01DF91CF9108952F923F924F920C
:100470005F926F927F928F929F92AF92BF92CF9234
:10048000DF92EF92FF920F931F93CF93DF938C0134
:1004900081E391E00E94C70183E391E00E94C701DC
:1004A000F8012080318082809380D0E0C0E0C215C6
:1004B000D3050CF0D3C081E391E00E94C701B12CB9
:1004C000A12CA814B9040CF0BFC0F801228133811B
:1004D000C29FC001C39F900DD29F900D11248A0D21
:1004E0009B1D880F991F880F991F24813581820FCA
:1004F000931FFC01C080D180E280F380A7019601A8
:10050000C701B6010E949C0A882361F086E391E04E
:100510000E94C70182E491E00E94C701FFEFAF1A79
:10052000BF0ACFCF26013701E89477F82FEF3FEFCE
:100530004FE75FE7C301B2010E949C0A81110DC021
:100540002FEF3FEF4FE75FE7C301B2010E9444097D
:1005500018161CF48AE391E0DBCF2FEF3FEF4FE753
:100560005FE4C701B6010E942A0A18161CF48EE344
:1005700091E0CECF2FEF3FEF4FE75FECC701B60121
:100580000E94440987FDF3CF20E030E0A901C701B4
:10059000B6010E94440987FF09C06DE28DED91E02C
:1005A0000E945A01F7FAF094F7F8F0942AE037ED38
:1005B00043EA5BE3C701B6010E94D8082B013C0166
:1005C0000E9449096B017C010E9478099B01AC01E2
:1005D000C301B2010E94D7082B013C014AE0C701C8
:1005E000B6010E94D4016EE28DED91E00E945A01A5
:1005F00020E030E040E251E4C301B2010E942F0A42
:100600002B013C010E9449096B01F12CE12C4AE0CD
:10061000C701B6010E94D401C701B6010E94780942
:100620009B01AC01C301B2010E94D70820E030E079
:1006300040E251E40E942F0A0E94490990E080E0C4
:100640004AE00E94D40166CF84E491E00E94C70191
:1006500083E391E00E94C701219629CF84E491E0D1
:100660000E94C70183E391E0DF91CF911F910F9129
:10067000FF90EF90DF90CF90BF90AF909F908F90C2
:100680007F906F905F904F903F902F900C94C70198
:10069000FC0184819581009711F00C943D0B089525
:1006A000EF92FF920F931F93CF93DF938C01FB0187
:1006B000E080F180FC01F182E082FA01C081D18109
:1006C000FC01D383C283EC9EC001ED9E900DFC9E85
:1006D000900D11248115F0E29F0708F5880F991FEE
:1006E000880F991F0E94A10AF80184839583BE0197
:1006F000660F771F660F771F9C0190E080E08E15D4
:100700009F05A4F4F90150E040E04C175D0754F454
:1007100011921192119211924F5F5F4FF6CF8FEFAE
:100720009FEFE0CF0196260F371FE9CFDF91CF91E2
:100730001F910F91FF90EF9008951F920F920FB6A7
:100740000F9211242F933F938F939F93AF93BF9357
:100750008091D5019091D601A091D701B091D80197
:100760003091D40123E0230F2D3758F50196A11DB8
:10077000B11D2093D4018093D5019093D601A0930D
:10078000D701B093D8018091D9019091DA01A0915D
:10079000DB01B091DC010196A11DB11D8093D9014F
:1007A0009093DA01A093DB01B093DC01BF91AF918C
:1007B0009F918F913F912F910F900FBE0F901F909F
:1007C000189526E8230F0296A11DB11DD2CF1F92C6
:1007D0000F920FB60F9211242F933F934F935F9375
:1007E0006F937F938F939F93AF93BF93EF93FF93F9
:1007F0008DED91E00E943801FF91EF91BF91AF9193
:100800009F918F917F916F915F914F913F912F9128
:100810000F900FBE0F901F9018951F920F920FB65A
:100820000F9211242F938F939F93EF93FF93E09157
:10083000ED01F091EE018081E091F301F091F4017E
:1008400082FD1BC090818091F6018F5F8F73209194
:10085000F701821741F0E091F601F0E0E352FE4F1C
:10086000958F8093F601FF91EF919F918F912F913A
:100870000F900FBE0F901F9018958081F4CFCF93EB
:10088000DF93CDB7DEB766970FB6F894DEBF0FBE25
:10089000CDBF789484B5826084BD84B5816084BD09
:1008A00085B5826085BD85B5816085BD80916E000E
:1008B000816080936E00109281008091810082603F
:1008C000809381008091810081608093810080917C
:1008D00080008160809380008091B100846080936B
:1008E000B1008091B00081608093B00080917A0067
:1008F000846080937A0080917A00826080937A008D
:1009000080917A00816080937A0080917A0080687B
:1009100080937A001092C100E091ED01F091EE0118
:1009200082E08083E091E901F091EA011082E09198
:10093000EB01F091EC018FEC80831092F501E091D6
:10094000F101F091F20186E08083E091EF01F091F6
:10095000F001808180618083E091EF01F091F001EE
:10096000808188608083E091EF01F091F0018081C7
:1009700080688083E091EF01F091F00180818F7DAC
:10098000808340E0242E40E0342E4FE251E0BA0153
:10099000CE010D960E9450034D855E852F853889C6
:1009A000429FC001439F900D529F900D11240297CA
:1009B00051F026E431E041E150E062E671E088E286
:1009C00091E00E94AC05AD84BE848F8598894C016E
:1009D000880C991C880C991C49895A8970E060E040
:1009E0001E8A1D8A6A157B05A4F5CD88DE88CC0C8D
:1009F000DD1CCC0CDD1C30E020E0B0E0A0E0A8174E
:100A0000B907BCF47901EC0CFD1C870100501F4FA5
:100A1000F80140805180628073807A01E20EF31EFB
:100A2000F701408251826282738211962C5F3F4FA0
:100A3000E6CF9C0197FF02C030E020E00D891E89BF
:100A4000020F131F1E8B0D8B6F5F7F4F480D591DBB
:100A5000C9CF81E090E09A8389839C8B8B8BAE0118
:100A60004D5E5F4FBE016F5F7F4FCE0107960E94C4
:100A70005003CE010D960E9435020E948400AE0103
:100A8000415F5F4FBE01635F7F4FCE0101960E94C1
:100A9000500329813A818B819C81289FA001299F45
:100AA000500D389F500D112469897A898D819E815E
:100AB0000E94C60BBE016F5F7F4FCE0107960E945A
:100AC0001802CE0101960E944803CE0107960E94AB
:100AD00035020E948400CE0107960E944803CE0191
:100AE0000D960E9448032114310409F44ECF0E9450
:100AF0002401882309F449CF0E94000046CFEDED80
:100B0000F1E01382128288EE93E0A0E0B0E08483EB
:100B10009583A683B7838AE191E09183808385ECF6
:100B200090E09587848784EC90E09787868780ECB7
:100B300090E0918B808B81EC90E0938B828B82ECA8
:100B400090E0958B848B86EC90E0978B868B118E52
:100B5000128E138E148E0895E0917E02F0917F0222
:100B60000097C1F45F934F937F936F933F932F93BD
:100B700081E791E09F938F93FF93EF930E94E805A5
:100B80008DB79EB70A960FB6F8949EBF0FBE8DBF65
:100B90000E94E3055F934F937F936F939F938F938F
:100BA0003F932F938CE991E09F938F93FF93EF9363
:100BB0000E94E8058DB79EB70C960FB6F8949EBFBD
:100BC0000FBE8DBFE5CF81E090E0F8940C94CF0B81
:100BD000B0E0A0E0EEEEF5E00C948808AE01475FCF
:100BE0005F4F6F8178858D819E810E94FA05E2E0DA
:100BF0000C94A408ABE0B0E0E0E0F6E00C947808D8
:100C00007C013B018A01FC0117821682838181FFEE
:100C1000C8C1CE0101965C01F7019381F30193FDF8
:100C2000859193FF81913F01882309F453C1853257
:100C300039F493FD859193FF81913F01853229F429
:100C4000B70190E00E94EA07E7CF912C212C312CCC
:100C5000FFE1F31538F08B3211F190F4803209F195
:100C6000833229F137FC3CC020ED280F2A3050F5A3
:100C700036FE20C08AE0989E200D1124922E06C0D8
:100C80008D3291F0803371F7689430F8F30193FD61
:100C9000859193FF81913F018111DACF21C0689442
:100CA00031F8689432F8F2CF689433F8EFCF689453
:100CB00034F8ECCFEAE02E9E200D1124222E689409
:100CC00035F8E4CF8E3229F436FC04C1689436F846
:100CD000DDCF8C3619F4689437F8D8CF8836B1F266
:100CE000982F9F7D95549330E0F08336A1F18337A0
:100CF000C1F1833509F063C02801F2E04F0E511CA9
:100D0000F801C080D180692D70E036FC02C06FEF21
:100D10007FEFC6010E94D4074C01689437F8820126
:100D20000AC00C5F1F4FFFE3F98388248394912C42
:100D30006501E89437F833FE2DC0522C81149104DC
:100D400071F5552009F468CFB70180E290E00E9468
:100D5000EA075A94F6CFF801808189830E5F1F4F0E
:100D6000E4CF2801F2E04F0E511CF801C080D18081
:100D7000692D70E036FC02C06FEF7FEFC6010E9464
:100D8000DF074C018201D5CFB70180E290E00E94DD
:100D9000EA072A942814190409F0B0F7CECFF60117
:100DA00037FC859137FE81916F01B70190E00E9479
:100DB000EA0751105A94F1E08F1A9108BFCF843698
:100DC00019F0893609F077C0F80137FE6BC06081F1
:100DD0007181828193810C5F1F4FF32DFF763F2E2F
:100DE00097FF09C090958095709561957F4F8F4FC3
:100DF0009F4F689437F82AE030E0A5010E941A0856
:100E0000C82ECA188C2C432C36FE0CC0E89440F82F
:100E1000C91440F434FE05C032FC03C0F32DFE7E3D
:100E20004F2E892C44FE95C0FE01EC0DF11D8081F2
:100E3000803309F087C0242D297E422E842D8870AE
:100E4000582E43FC95C040FE8FC09C2C821418F491
:100E50002C0C922C981844FE91C0B70180E390E0CE
:100E60000E94EA0742FE09C088E790E041FE02C006
:100E700088E590E0B7010E94EA07C91408F48AC027
:100E8000CA94D12C9FEFC91AD90ACA0CDB1CF601EF
:100E900082916F01B70190E00E94EA07AC14BD0493
:100EA000B1F74FCF60817181072E000C880B990B31
:100EB0000E5F1F4F92CFD32CE894D4F82AE030E095
:100EC000853739F1232D297FD22E8F3601F148F451
:100ED0008835A9F0F701868197812B96E2E10C9481
:100EE0009408803749F08837A9F7D4FE02C0689487
:100EF000D2F820E130E00DC06894D4F8F6CF34FE8B
:100F000003C0822F8660D82E20E132E002C028E0A4
:100F100030E0F801D7FE0FC060817181828193813A
:100F20000C5F1F4FA5010E941A08C82ECA183D2C3D
:100F3000E89437F867CF6081718190E080E00E5FC0
:100F40001F4FF0CF42FC02C0839478CF83948394E8
:100F500075CF842D867809F471CFF6CFB70180E282
:100F600090E00E94EA0783948214C0F3512C73CF5F
:100F7000522C5818821408F46ECFF8CF842D86783E
:100F800009F47BCF8BE241FE80E247FC8DE2B701A2
:100F900090E071CFB70180E390E00E94EA079A9455
:100FA0006CCF8FEF9FEF99CFFC010590615070409F
:100FB0000110D8F7809590958E0F9F1F0895FC0122
:100FC0006150704001900110D8F7809590958E0F78
:100FD0009F1F08950F931F93CF93DF93182F092F0F
:100FE000EB018B8181FD09C01FEF0FEF812F902F47
:100FF000DF91CF911F910F91089582FF14C02E8130
:101000003F818C819D81281739073CF4E881F98163
:10101000CF0101969983888310838E819F810196E9
:101020009F838E83E3CFE885F985812F0995892BEE
:10103000A1F3DACFFA01AA27283051F1203181F14A
:10104000E8946F936E7F6E5F7F4F8F4F9F4FAF4FD0
:10105000B1E03ED0B4E03CD0670F781F891F9A1FE3
:10106000A11D680F791F8A1F911DA11D6A0F711D97
:10107000811D911DA11D20D009F468943F912AE0A3
:10108000269F11243019305D3193DEF6CF0108958B
:10109000462F4770405D4193B3E00FD0C9F7F6CFBC
:1010A000462F4F70405D4A3318F0495D31FD405284
:1010B000419302D0A9F7EACFB4E0A695979587951A
:1010C00077956795BA95C9F70097610571050895F9
:1010D0009B01AC010A2E06945795479537952795A5
:1010E000BA95C9F7620F731F841F951FA01D08953D
:1010F0002F923F924F925F926F927F928F929F9228
:10110000AF92BF92CF92DF92EF92FF920F931F9315
:10111000CF93DF93CDB7DEB7CA1BDB0B0FB6F894C6
:10112000DEBF0FBECDBF09942A88398848885F8406
:101130006E847D848C849B84AA84B984C884DF8077
:10114000EE80FD800C811B81AA81B981CE0FD11D5B
:101150000FB6F894DEBF0FBECDBFED010895A1E23A
:101160001A2EAA1BBB1BFD010DC0AA1FBB1FEE1F21
:10117000FF1FA217B307E407F50720F0A21BB30B6C
:10118000E40BF50B661F771F881F991F1A9469F7E8
:1011900060957095809590959B01AC01BD01CF0144
:1011A0000895EE0FFF1F0590F491E02D099450581B
:1011B000BB27AA270E94EF080C94F0090E94E209BD
:1011C00038F00E94E90920F039F49F3F19F426F421
:1011D0000C94DF090EF4E095E7FB0C94D909E92F94
:1011E0000E94010A58F3BA1762077307840795072C
:1011F00020F079F4A6F50C94230A0EF4E0950B2E5A
:10120000BA2FA02D0B01B90190010C01CA01A00158
:101210001124FF27591B99F0593F50F4503E68F1B3
:101220001A16F040A22F232F342F4427585FF3CFF4
:10123000469537952795A795F0405395C9F77EF4C5
:101240001F16BA0B620B730B840BBAF09150A1F00E
:10125000FF0FBB1F661F771F881FC2F70EC0BA0F94
:10126000621F731F841F48F4879577956795B7951C
:10127000F7959E3F08F0B0CF9395880F08F0992717
:10128000EE0F9795879508950E94B50908F481E0BF
:1012900008950E94090A88F09F5798F0B92F99275E
:1012A000B751B0F0E1F0660F771F881F991F1AF051
:1012B000BA95C9F714C0B13091F00E94230AB1E089
:1012C00008950C94230A672F782F8827B85F39F088
:1012D000B93FCCF3869577956795B395D9F73EF4EA
:1012E00090958095709561957F4F8F4F9F4F089592
:1012F000E89409C097FB3EF49095809570956195B0
:101300007F4F8F4F9F4F9923A9F0F92F96E9BB2765
:101310009395F695879577956795B795F111F8CFE1
:10132000FAF4BB0F11F460FF1BC06F5F7F4F8F4F4C
:101330009F4F16C0882311F096E911C0772321F042
:101340009EE8872F762F05C0662371F096E8862FDA
:1013500070E060E02AF09A95660F771F881FDAF731
:10136000880F9695879597F90895990F0008550F5E
:10137000AA0BE0E8FEEF16161706E807F907C0F01B
:1013800012161306E407F50798F0621B730B840B23
:10139000950B39F40A2661F0232B242B252B21F4FD
:1013A00008950A2609F4A140A6958FEF811D811D9D
:1013B000089597F99F6780E870E060E008959FEFD7
:1013C00080EC089500240A941616170618060906DC
:1013D000089500240A9412161306140605060895AB
:1013E000092E0394000C11F4882352F0BB0F40F433
:1013F000BF2B11F460FF04C06F5F7F4F8F4F9F4F73
:10140000089557FD9058440F551F59F05F3F71F0F4
:101410004795880F97FB991F61F09F3F79F087955B
:101420000895121613061406551FF2CF4695F1DFE4
:1014300008C0161617061806991FF1CF8695710574
:10144000610508940895E894BB2766277727CB01A8
:1014500097F908950E94B50908F48FEF08950E9446
:10146000420A0C94F0090E94E20938F00E94E9094E
:1014700020F0952311F00C94D9090C94DF09112464
:101480000C94240A0E94010A70F3959FC1F3950FF2
:1014900050E0551F629FF001729FBB27F00DB11DF8
:1014A000639FAA27F00DB11DAA1F649F6627B00D88
:1014B000A11D661F829F2227B00DA11D621F739F71
:1014C000B00DA11D621F839FA00D611D221F749F7F
:1014D0003327A00D611D231F849F600D211D822FC6
:1014E000762F6A2F11249F5750409AF0F1F08823ED
:1014F0004AF0EE0FFF1FBB1F661F771F881F91501A
:101500005040A9F79E3F510580F00C94D9090C94E6
:10151000240A5F3FE4F3983ED4F386957795679568
:10152000B795F795E7959F5FC1F7FE2B880F911D43
:101530009695879597F908950E94B509880B990BA0
:1015400008950F931F93CF93DF938230910510F48A
:1015500082E090E0E0918202F091830230E020E0AE
:10156000B0E0A0E0309799F42115310509F44AC0A4
:10157000281B390B24303105D8F58A819B816115F0
:10158000710589F1FB0193838283FE0111C04081C3
:1015900051810281138148175907E0F04817590714
:1015A00099F4109761F012960C93129713961C936E
:1015B0003296CF01DF91CF911F910F910895009343
:1015C000820210938302F4CF2115310551F04217A6
:1015D000530738F0A901DB019A01BD01DF01F801D1
:1015E000C1CFEF01F9CF9093830280938202CDCFD8
:1015F000FE01E20FF31F8193919322503109398349
:101600002883D7CF2091800230918102232B41F48F
:1016100020911201309113013093810220938002B6
:1016200020911001309111012115310541F42DB7A0
:101630003EB74091140150911501241B350BE091E8
:101640008002F0918102E217F307A0F42E1B3F0BFA
:101650002817390778F0AC014E5F5F4F2417350724
:1016600048F04E0F5F1F5093810240938002819398
:1016700091939FCFF0E0E0E09CCFCF93DF93009772
:10168000E9F0FC01329713821282A0918202B0919C
:101690008302ED0130E020E01097A1F42081318138
:1016A000820F931F20918002309181022817390701
:1016B00009F061C0F0938102E0938002DF91CF9145
:1016C0000895EA01CE17DF07E8F54A815B819E01A4
:1016D00041155105B1F7E901FB83EA83499159911D
:1016E000C40FD51FEC17FD0761F48081918102962C
:1016F000840F951FE90199838883828193819B835D
:101700008A83F0E0E0E012968D919C911397009708
:10171000B9F52D913C911197CD010296820F931F3F
:1017200020918002309181022817390739F63097CD
:1017300051F51092830210928202B0938102A0931D
:101740008002BCCFD383C28340815181840F951F17
:10175000C817D90761F44E5F5F4F88819981480FA0
:10176000591F518340838A819B81938382832115F2
:10177000310509F0B0CFF0938302E09382029ECF4F
:10178000FD01DC01C0CF13821282D7CFFB01DC0147
:1017900002C001900D9241505040D8F70895F8943E
:0217A000FFCF79
:1017A200666646400000204033335340000000008C
:1017B200000084028000000000005A01BA00E70025
:1017C200A7011801F6000A014D61747269780002DE
:1017D200005B000D0A006E616E00696E66006F7636
:1017E200660020005D0073697A656F662864617423
:1017F2006129203D3D2028726F77732A636F6C73D5
:1018020029007372632F4D61747269782E63707050
:1018120000417373657274696F6E206661696C65ED
:10182200643A20282573292C2066696C652025736B
:101832002C206C696E652025642E0A004173736545
:101842007274696F6E206661696C65643A2028253E
:1018520073292C2066756E6374696F6E2025732C54
:101862002066696C652025732C206C696E652025C5
:04187200642E0A00D6
:00000001FF
